:020000040800F2
:1000000000C00020DD310008212D0008232D00084C
:10001000252D0008272D0008292D000800000000CC
:100020000000000000000000000000002B2D000870
:100030002D2D0008000000002F2D0008312D000894
:100040002132000821320008213200082132000844
:100050002132000821320008213200082132000834
:1000600021320008213200082132000871290008DD
:100070002132000821320008213200082132000814
:100080002132000821320008213200082132000804
:1000900021320008213200082132000821320008F4
:1000A00021320008213200082132000821320008E4
:1000B00021320008213200082132000821320008D4
:1000C00021320008213200082132000821320008C4
:1000D00021320008213200082132000821320008B4
:1000E00021320008213200082132000821320008A4
:1000F000213200082132000851290008213200086D
:100100002132000821320008213200082132000883
:100110002132000821320008213200082132000873
:100120002132000821320008213200082132000863
:100130002132000821320008213200082132000853
:100140002132000821320008213200082132000843
:1001500010B5054C237833B9044B13B10448AFF301
:1001600000800123237010BDF0000020000000007B
:10017000003D000808B5034B1BB103490348AFF32A
:10018000008008BD00000000F4000020003D0008D1
:10019000034613F8012B002AFBD1181A01387047C7
:1001A00001F0FF01102A2BDB10F0070F08D010F828
:1001B000013B013A8B422DD010F0070F42B3F6D12C
:1001C000F0B441EA012141EA014122F007047FF045
:1001D00000070023F0E80256083C85EA010586EA9C
:1001E000010685FA47F5A3FA87F586FA47F6A5FAD8
:1001F00087F68EB9EED1F0BC01F0FF0102F00702E4
:1002000032B110F8013B013A83EA010313B1F8D18E
:100210000020704701387047002D06BF354603386F
:10022000073815F0010F07D1013015F4807F02BFA8
:10023000013015F4C03F0130F0BC0138704700BFF9
:1002400081F0004102E000BF83F0004330B54FEA87
:1002500041044FEA430594EA050F08BF90EA020FF4
:100260001FBF54EA000C55EA020C7FEA645C7FEA87
:10027000655C00F0E2804FEA5454D4EB5555B8BFAA
:100280006D420CDD2C4480EA020281EA030382EA1B
:10029000000083EA010180EA020281EA0303362DAD
:1002A00088BF30BD11F0004F4FEA01314FF4801C80
:1002B0004CEA113102D0404261EB410113F0004F92
:1002C0004FEA03334CEA133302D0524263EB430349
:1002D00094EA050F00F0A780A4F10104D5F1200EE7
:1002E0000DDB02FA0EFC22FA05F2801841F1000142
:1002F00003FA0EF2801843FA05F359410EE0A5F116
:1003000020050EF1200E012A03FA0EFC28BF4CF046
:10031000020C43FA05F3C01851EBE37101F00045FC
:1003200007D54FF0000EDCF1000C7EEB00006EEB09
:100330000101B1F5801F1BD3B1F5001F0CD3490893
:100340005FEA30004FEA3C0C04F101044FEA4452EA
:1003500012F5800F80F09A80BCF1004F08BF5FEA71
:10036000500C50F1000041EB045141EA050130BD51
:100370005FEA4C0C404141EB010111F4801FA4F1F4
:100380000104E9D191F0000F04BF01460020B1FA49
:1003900081F308BF2033A3F10B03B3F120020CDA81
:1003A0000C3208DD02F1140CC2F10C0201FA0CF05F
:1003B00021FA02F10CE002F11402D8BFC2F1200CC4
:1003C00001FA02F120FA0CFCDCBF41EA0C0190407A
:1003D000E41AA2BF01EB0451294330BD6FEA0404C3
:1003E0001F3C1CDA0C340EDC04F11404C4F12002AE
:1003F00020FA04F001FA02F340EA030021FA04F3C0
:1004000045EA030130BDC4F10C04C4F1200220FA16
:1004100002F001FA04F340EA0300294630BD21FA54
:1004200004F0294630BD94F0000F83F4801306BF1A
:1004300081F480110134013D4EE77FEA645C18BF0E
:100440007FEA655C29D094EA050F08BF90EA020FA5
:1004500005D054EA000C04BF1946104630BD91EA9D
:10046000030F1EBF0021002030BD5FEA545C05D1A0
:100470004000494128BF41F0004130BD14F58004DF
:100480003CBF01F5801130BD01F0004545F0FE4153
:1004900041F470014FF0000030BD7FEA645C1ABF88
:1004A000194610467FEA655C1CBF0B46024650EABF
:1004B000013406BF52EA033591EA030F41F40021EB
:1004C00030BD00BF90F0000F04BF0021704730B571
:1004D0004FF4806404F132044FF000054FF0000146
:1004E00050E700BF90F0000F04BF0021704730B507
:1004F0004FF4806404F1320410F0004548BF4042DC
:100500004FF000013EE700BF42004FEAE2014FEA30
:1005100031014FEA02701FBF12F07F4393F07F4F0B
:1005200081F06051704732F07F4208BF704793F00E
:100530007F4F04BF41F40021704730B54FF4607421
:1005400001F0004521F000411CE700BF50EA010224
:1005500008BF704730B54FF000050AE050EA0102CD
:1005600008BF704730B511F0004502D5404261EB3D
:1005700041014FF4806404F132045FEA915C3FF47E
:10058000D8AE4FF003025FEADC0C18BF03325FEA1B
:10059000DC0C18BF033202EBDC02C2F1200300FACC
:1005A00003FC20FA02F001FA03FE40EA0E0021FAF1
:1005B00002F11444BDE600BF70B54FF0FF0C4CF4DF
:1005C000E06C1CEA11541DBF1CEA135594EA0C0F91
:1005D00095EA0C0F00F0DEF82C4481EA030621EACC
:1005E0004C5123EA4C5350EA013518BF52EA033507
:1005F00041F4801143F4801338D0A0FB02CE4FF0B9
:100600000005E1FB02E506F00042E0FB03E54FF0E8
:100610000006E1FB03569CF0000F18BF4EF0010EE0
:10062000A4F1FF04B6F5007F64F5407404D25FEADC
:100630004E0E6D4146EB060642EAC62141EA55518F
:100640004FEAC52040EA5E504FEACE2EB4F1FD0CD1
:1006500088BFBCF5E06F1ED8BEF1004F08BF5FEA4F
:10066000500E50F1000041EB045170BD06F0004601
:1006700046EA010140EA020081EA0301B4EB5C04AE
:10068000C2BFD4EB0C0541EA045170BD41F48011A6
:100690004FF0000E013C00F3AB8014F1360FDEBFCB
:1006A000002001F0004170BDC4F10004203C35DAA7
:1006B0000C341BDC04F11404C4F1200500FA05F32A
:1006C00020FA04F001FA05F240EA020001F00042CB
:1006D00021F0004110EBD37021FA04F642EB060141
:1006E0005EEA430E08BF20EAD37070BDC4F10C046B
:1006F000C4F1200500FA04F320FA05F001FA04F22F
:1007000040EA020001F0004110EBD37041F100011A
:100710005EEA430E08BF20EAD37070BDC4F1200525
:1007200000FA05F24EEA020E20FA04F301FA05F28D
:1007300043EA020321FA04F001F0004121FA04F235
:1007400020EA020000EBD3705EEA430E08BF20EA05
:10075000D37070BD94F0000F0FD101F0004640003F
:1007600041EB010111F4801F08BF013CF7D041EAC1
:10077000060195F0000F18BF704703F000465200C5
:1007800043EB030313F4801F08BF013DF7D043EA96
:100790000603704794EA0C0F0CEA135518BF95EA4C
:1007A0000C0F0CD050EA410618BF52EA4306D1D1D3
:1007B00081EA030101F000414FF0000070BD50EAF2
:1007C000410606BF1046194652EA430619D094EA7C
:1007D0000C0F02D150EA013613D195EA0C0F05D166
:1007E00052EA03361CBF104619460AD181EA0301BA
:1007F00001F0004141F0FE4141F470014FF0000072
:1008000070BD41F0FE4141F4780170BD70B54FF00C
:10081000FF0C4CF4E06C1CEA11541DBF1CEA13558C
:1008200094EA0C0F95EA0C0F00F0A7F8A4EB05046E
:1008300081EA030E52EA03354FEA013100F0888065
:100840004FEA03334FF0805545EA131343EA12632E
:100850004FEA022245EA111545EA10654FEA0026E3
:100860000EF000419D4208BF964244F1FD0404F59C
:10087000407402D25B084FEA3202B61A65EB0305F8
:100880005B084FEA32024FF480104FF4002CB6EBB5
:10089000020E75EB030E22BFB61A754640EA0C0035
:1008A0005B084FEA3202B6EB020E75EB030E22BF75
:1008B000B61A754640EA5C005B084FEA3202B6EBB6
:1008C000020E75EB030E22BFB61A754640EA9C0075
:1008D0005B084FEA3202B6EB020E75EB030E22BF45
:1008E000B61A754640EADC0055EA060E18D04FEA03
:1008F000051545EA16754FEA06164FEAC30343EAA3
:1009000052734FEAC2025FEA1C1CC0D111F4801F6F
:100910000BD141EA00014FF000004FF0004CB6E768
:1009200011F4801F04BF01430020B4F1FD0C88BF07
:10093000BCF5E06F3FF6AFAEB5EB030C04BFB6EB12
:10094000020C5FEA500C50F1000041EB045170BD05
:100950000EF0004E4EEA113114EB5C04C2BFD4EB32
:100960000C0541EA045170BD41F480114FF0000EB6
:10097000013C90E645EA060E8DE60CEA135594EA32
:100980000C0F08BF95EA0C0F3FF43BAF94EA0C0F35
:100990000AD150EA01347FF434AF95EA0C0F7FF4AA
:1009A00025AF104619462CE795EA0C0F06D152EAFE
:1009B00003353FF4FDAE1046194622E750EA4106E2
:1009C00018BF52EA43067FF4C5AE50EA41047FF4F3
:1009D0000DAF52EA43057FF4EBAE12E74FEA410256
:1009E00012F5001215D211D56FF47873B3EB625281
:1009F00012D94FEAC12343F0004343EA505311F0A8
:100A0000004F23FA02F018BF404270474FF0000039
:100A1000704750EA013005D111F0004008BF6FF077
:100A2000004070474FF00000704700BF4FEA41029E
:100A3000B2F1E04324BFB3F5001CDCF1FE5C0DD93C
:100A400001F0004C4FEAC0024CEA5070B2F1004F86
:100A500040EB830008BF20F00100704711F0804F89
:100A600021D113F13872BCBF01F00040704741F44E
:100A700080114FEA5252C2F11802C2F1200C10FA52
:100A80000CF320FA02F018BF40F001004FEAC12336
:100A90004FEAD32303FA0CFC40EA0C0023FA02F3DA
:100AA0004FEA4303CCE77FEA625307D150EA0133B0
:100AB0001EBF4FF0FE4040F44000704701F0004080
:100AC00040F0FE4040F40000704700BF53B94AB9FF
:100AD000002908BF00281CBF4FF0FF314FF0FF3046
:100AE00000F074B9ADF1080C6DE904CE00F006F821
:100AF000DDF804E0DDE9022304B070472DE9F0479A
:100B0000089E04468846002B40F085808A421546A0
:100B100048D9B2FA82F24AB1C2F1200701FA02F3CF
:100B200020FA07F7954047EA030894404FEA154E2C
:100B3000230CB8FBFEF71FFA85FC0EFB178843EA6F
:100B4000084307FB0CF1994209D9EB1807F1FF3074
:100B500080F0E380994240F2E080023F2B445B1A30
:100B6000A4B2B3FBFEF00EFB103344EA034400FBD7
:100B70000CFCA44509D92C1900F1FF3380F0CB807F
:100B8000A44540F2C88002382C4440EA0740A4EB58
:100B90000C0400271EB1D4400023C6E900433946A7
:100BA000BDE8F087002A53D0B2FA82F2002A40F062
:100BB000B680491B4FEA154E1FFA85F80127B1FB95
:100BC000FEFC230C0EFB1C1143EA014308FB0CF155
:100BD000994207D9EB180CF1FF3002D2994200F28A
:100BE000EC808446591AA3B2B1FBFEF00EFB101440
:100BF00043EA044408FB00F8A04507D92C1900F18A
:100C0000FF3302D2A04500F2DC801846A4EB0804B2
:100C100040EA0C40BEE78B4208D9002E78D000276E
:100C2000C6E9000138463946BDE8F087B3FA83F7D4
:100C30007FB98B4202D3824200F2BD80841A61EBFD
:100C4000030301209846002EA9D0C6E90048A6E774
:100C5000FFDEC7F12005BB4022FA05FC4CEA030C7D
:100C600001FA07F420FA05F821FA05F34FEA1C4EC1
:100C700048EA0404B3FBFEF9210C0EFB19331FFAFA
:100C80008CF841EA034309FB08FA9A4502FA07F295
:100C900000FA07F10BD91CEB030309F1FF3080F0D8
:100CA00088809A4540F28580A9F102096344A3EB4C
:100CB0000A03A4B2B3FBFEF00EFB103344EA034474
:100CC00000FB08F8A04508D91CEB040400F1FF3331
:100CD0006BD2A04569D90238644440EA0940A4EBCC
:100CE0000804A0FB02894C45C6464B4654D351D05C
:100CF000002E69D0B1EB0E0264EB030404FA05F593
:100D000022FA07F3FC401D43C6E90054002746E7DA
:100D10003746304643E7184637E707461FE7C2F134
:100D2000200320FA03F7954001FA02F021FA03F3B9
:100D30004FEA154E3843010CB3FBFEF71FFA85F856
:100D40000EFB173341EA034107FB08F38B4204FA19
:100D500002F407D9691807F1FF3C28D28B4226D943
:100D6000023F2944CB1A81B2B3FBFEF00EFB1033D5
:100D700041EA034100FB08F38B4207D9691800F1EF
:100D8000FF3C10D28B420ED902382944C91A40EADE
:100D9000074714E74145ABD2B8EB020E69EB0C02F2
:100DA00001381346A4E76046F0E7184695E7674622
:100DB000D8E781467BE7384645E7ACF1020C2B4487
:100DC00010E702382C4421E73746E8E6704700BFB9
:100DD000014B1868704700BF0800002008B5FFF7F6
:100DE000F7FF044B5B68C3F30223034AD35CDBB217
:100DF000D84008BD001002400000002008B5FFF7F1
:100E0000E7FF044B5B68C3F3C223034AD35CDBB246
:100E1000D84008BD001002400000002030B4036A32
:100E200023F001030362056A4268846924F07304B5
:100E30000B681C4325F002058B682B43104DA8421C
:100E400003D005F50065A84205D123F00803CD685D
:100E50002B4323F004030A4DA84203D005F5006597
:100E6000A84205D122F440724D6915438A692A438C
:100E7000426084614A684263036230BC704700BFCD
:100E8000002C014030B4036A23F480730362036AC8
:100E90004268C46924F073040D682C4323F4007382
:100EA0008D6843EA0523124DA84203D005F500657D
:100EB000A84206D123F40063CD6843EA052323F456
:100EC00080630B4DA84203D005F50065A84207D109
:100ED00022F440524D6942EA05128D6942EA051238
:100EE0004260C4614A68C263036230BC704700BF9D
:100EF000002C014030B4036A23F480530362036A78
:100F00004468C26922F4E6420D6842EA052223F4ED
:100F100000538D6843EA0533094DA84203D005F517
:100F20000065A84204D124F480444D6944EA851444
:100F30004460C2614A680264036230BC704700BF0B
:100F4000002C014010B4036A046A24F00104046216
:100F5000846924F0F00444EA021223F00A030B43EC
:100F6000826103625DF8044B704710B4036A23F09A
:100F7000100303628469036A24F4704444EA023271
:100F800023F0A00343EA0113826103625DF8044B7E
:100F9000704710B4846824F47F4442EA03230B436F
:100FA000234383605DF8044B704710B50468A26862
:100FB00022F070024B68134323F007030A681343BF
:100FC000A3604B68502B1ED00AD9602B21D0702B08
:100FD00005D10B698A68C9680068FFF7DAFF10BDA0
:100FE000402BFCD103681C6A1A6A22F001021A62C3
:100FF0000268936923F0F003096943EA01139361DE
:1010000003681C62EBE70A6989680068FFF79AFFCA
:10101000E5E70A6989680068FFF7A7FFDFE770471F
:1010200038B590F83C30012B18D00446012580F8E3
:101030003C50022380F83D30FFF7B7FF2268D368A9
:1010400023F04003D3602268D36823F48043D36045
:1010500084F83D50002084F83C0038BD0220FCE7B5
:101060000368244A904212D002F5006290420ED0EA
:10107000B0F1804F0BD0A2F59832904207D002F524
:101080008062904203D002F58062904203D123F047
:1010900070034A681343174A904212D002F5006267
:1010A00090420ED0B0F1804F0BD0A2F59832904212
:1010B00007D002F58062904203D002F58062904230
:1010C00003D123F44073CA68134323F080034A69B1
:1010D000134303608B68C3620B688362054B9842BD
:1010E00003D003F50063984201D10B690363012328
:1010F00043617047002C0140B0B110B5044690F830
:101100003D3063B1022384F83D30214651F8040B91
:10111000FFF7A6FF012384F83D30002010BD80F8C2
:101120003C30FFF77CFFEDE70120704730B4036AE5
:1011300023F010030362036A4468826922F4E642E2
:101140000D6842EA052223F020038D6843EA051367
:10115000114DA84203D005F50065A84206D123F041
:101160008003CD6843EA051323F040030A4DA842EB
:1011700003D005F50065A84207D124F440644D6909
:1011800044EA85048D6944EA8504446082614A68C2
:101190008263036230BC7047002C014038B590F880
:1011A0003C30012B66D00D460446012380F83C30CC
:1011B000022380F83D300C2A1AD8DFE802F0071924
:1011C0001919201919193419191947000068FFF75E
:1011D00025FE2268936943F00803936122689369AE
:1011E00023F0040393612268936929690B43936197
:1011F000012384F83D30002084F83C0038BD0068AD
:10120000FFF794FF2268936943F4006393612268B7
:10121000936923F48063936122689369296943EA9F
:1012200001239361E4E70068FFF72CFE2268D3698D
:1012300043F00803D3612268D36923F00403D36128
:101240002268D36929690B43D361D1E70068FFF7AE
:1012500051FE2268D36943F40063D3612268D369E5
:1012600023F48063D3612268D369296943EA0123A7
:10127000D361BDE70220C1E790F83C30012B25D0B7
:10128000012380F83C30CB6823F440738A68134311
:1012900023F480634A68134323F400630A6813430A
:1012A00023F480530A69134323F400534A69134318
:1012B00023F480438A69134323F4004313430268F1
:1012C0005364002380F83C30184670470220704772
:1012D00090F83C30012B22D030B4012280F83C2021
:1012E000022380F83D300468636823F07003636074
:1012F000046863680D682B4363600468A36823F087
:101300008003A3600468A36849680B43A36080F866
:101310003D20002380F83C30184630BC7047022046
:1013200070470000034690F82420012A20D00122B3
:1013300080F824200268906810F0010F07D10D4852
:10134000806810F0010F02D10B48824208D09A6ADF
:1013500042F020029A620120002283F82420704784
:10136000506820F470200968084350600020F3E7BB
:10137000022070470028014000240140074AD3683A
:1013800023F4E0631B041B0C000200F4E06018432C
:1013900040F0BF6040F40030D060704700ED00E0E6
:1013A00030B4174BDB68C3F30223C3F10704042CEA
:1013B00028BF04241D1D062D01D9033B00E0002396
:1013C0004FF0FF3505FA04F421EA0401994005FACB
:1013D00003F322EA03031943002809DB0901C9B218
:1013E00000F1604000F5614080F8001330BC7047A8
:1013F00000F00F000901C9B2024B1954F6E700BF13
:1014000000ED00E014ED00E000F01F0240090123B0
:101410009340024A42F82030704700BF00E100E0EC
:101420000138B0F1807F0AD2064B5860064AF0219D
:1014300082F823100020986007221A60704701206C
:10144000704700BF10E000E000ED00E0042805D088
:10145000054A136823F0040313607047024A1368B7
:1014600043F004031360704710E000E0704708B5D4
:10147000FFF7FCFF08BD0000F0B482B0002635463F
:10148000A6E0002B5ED0012B10D1CE680EE06E4F8F
:10149000BB4257D04ED96D4FBB4253D007F5803772
:1014A000BB424FD0A7F58017BB424BD0FF2A5DD877
:1014B0008446FF2A5DD8AC00DCF800300F27A74037
:1014C00023EA070306FA04F42343CCF800304B6800
:1014D00013F0805F7BD05E4B9C6944F001049C61FB
:1014E0009B6903F001030193019BAC08A71C594BB6
:1014F00053F827C005F003039F000F23BB402CEADD
:10150000030C554B98423AD003F58063984278D04B
:1015100003F58063984276D003F58063984274D0D7
:1015200003F58063984272D003F58063984224D01B
:10153000062325E0A7F58017BB4203D007F58037C7
:10154000BB42B3D18B687BB1012B08D04461082624
:10155000ACE7CE680836A9E7CE680C36A6E704618A
:101560000826A3E70026A1E704269FE700F1040C64
:101570009FE7A5F10804A4009EE7052300E00023EF
:10158000BB4043EA0C030234324F47F824304B6827
:1015900013F4803F3DD0314C2368134323604B68E4
:1015A00013F4003F3BD02D4C6368134363604B68DA
:1015B00013F4801F39D0294CA3681343A3604B68F0
:1015C00013F4001F37D0254CE3681A43E26001355D
:1015D0000F2D36D80124AC400A6822409442F6D13F
:1015E0004B68122BB8D03FF652AF022BB1D07FF62A
:1015F00048AF032BB6D0112B7FF458AFCE6804361A
:1016000054E70123BCE70223BAE70323B8E7042326
:10161000B6E7124C236823EA02032360BFE70F4CAE
:10162000636823EA02036360C1E70C4CA36823EA02
:101630000203A360C3E7094CE36823EA0202E26005
:10164000C5E702B0F0BC7047000021100000311067
:101650000010024000000140000801400004014069
:101660000AB101617047090401617047C3685940BC
:10167000C16070477047000010B50446074B1868FA
:10168000074BA3FB00308009FFF7CAFE002221466A
:101690004FF0FF30FFF784FE002010BD080000204F
:1016A000D34D621008B5074A136843F01003136066
:1016B0000320FFF763FE0020FFF7DEFFFFF7DAFFEE
:1016C000002008BD00200240024A13680133136065
:1016D000704700BF30010020014B1868704700BF01
:1016E0003001002030B583B00190FFF7F5FF0546CB
:1016F000019CB4F1FF3F00D00134FFF7EDFF401B28
:10170000A042FAD303B030BD7047000030B482B0BD
:101710000023019390F82430012B00F08B800246C7
:10172000012380F824304B68062B29D80568686BA4
:1017300003EB8303053B1F249C4020EA04000C6854
:1017400004FA03F303436B630B68092B38D915685C
:10175000E86803EB43031E3B07249C4020EA040097
:101760008C6804FA03F30343EB600B68103B012B16
:1017700034D90020002382F8243002B030BC7047F6
:101780000C2B0ED80568286B03EB8303233B1F2427
:101790009C4020EA04000C6804FA03F303432B6323
:1017A000D2E70568E86A03EB8303413B1F249C40B2
:1017B00020EA04000C6804FA03F30343EB62C3E776
:1017C0001568286903EB430307249C4020EA0400C2
:1017D0008C6804FA03F303432B61C6E713681648C9
:1017E000834205D0936A43F0200393620120C1E74E
:1017F000986810F4000F1BD1986840F400009860BE
:101800000B68102B01D00020B4E70C4B1B680C496F
:10181000A1FB03139B0C03EB83035900019102E02E
:10182000019B013B0193019B002BF9D10020A1E713
:1018300000209FE70220A0E70024014008000020CC
:1018400083DE1B4330B583B00023019303689A689D
:1018500012F0010F2DD19A6842F001029A60164BE6
:101860001B68164AA2FB03239B0C0193019B1BB12F
:10187000019B013B0193F9E70446FFF72DFF054665
:1018800023689B6813F0010F11D1FFF725FF401B60
:101890000228F5D9A36A43F01003A362E36A43F078
:1018A0000103E362002384F82430012002E00020D9
:1018B00000E0002003B030BD0800002083DE1B43A1
:1018C00090F82430012B6BD010B50446012380F82A
:1018D0002430FFF7B7FF024600285CD1A36A23F447
:1018E000407323F0010343F48073A36221682E4BFD
:1018F000994228D0A36A23F48013A3624B6813F49F
:10190000806F05D0A36A23F4405343F48053A3624D
:10191000A36A13F4805F2CD0E36A23F00603E3622A
:10192000002384F8243023686FF0020119602368D3
:10193000996801F46021B1F5602F1DD0996841F4D8
:10194000801199602AE0A3F580635B6813F4702F1F
:10195000D0D0A36A43F48013A362144B5B6813F4E2
:10196000806FD5D0A36A23F4405343F48053A3621D
:10197000CEE70023E362D3E70B498B4204D099689A
:1019800041F4A001996009E0A1F58061496811F472
:10199000702FD3D1F3E7002384F82430104610BD14
:1019A00002221046704700BF002801400024014079
:1019B00038B503689A6812F0010F01D1002038BDD4
:1019C00004469A6822F001029A60FFF785FE0546F8
:1019D00023689B6813F0010F0ED0FFF77DFE401BBC
:1019E0000228F5D9A36A43F01003A362E36A43F027
:1019F0000103E3620120E2E70020E0E7002800F0B5
:101A00008A8070B50446836A002B36D02046FFF7E3
:101A1000CFFFA36A13F0100377D1002875D1A26A13
:101A200022F4885222F0020242F00202A2626268AC
:101A300025683A498D4226D0E1690A43E66842EAC0
:101A40004602A168B1F5807F27D0012922D06169C3
:101A5000012925D0696821F469410B436B60216835
:101A60008D682F4B2B4013438B60A368B3F5807FA9
:101A700027D0012B25D0002126E0C36280F8243036
:101A8000FFF742FEC2E7E169B1F5402FD5D14FF42F
:101A90000021D2E74FF48073D9E74FF48073D6E783
:101AA00036B9A169013943EA413343F40063D1E710
:101AB000A16A41F02001A162E16A41F00101E16205
:101AC000C8E72369013B19052568EB6A23F4700315
:101AD0000B43EB6223689968124B0B409A420BD080
:101AE000A36A23F0120343F01003A362E36A43F0F6
:101AF0000103E36201200DE00023E362A36A23F007
:101B0000030343F00103A36204E0A36A43F010035C
:101B1000A362012070BD0120704700BF003C01405E
:101B2000FDF7E1FFFE0E1FFF2DE9F84305460268B1
:101B3000136923F44053C1680B431361836802693E
:101B40001343426913430168CA6822F4B05222F079
:101B50000C021343CB600268536923F4407381691C
:101B60000B4353610268594B9A4257D0FFF736F93D
:101B700000EB800000EB80006C68A400B0FBF4F484
:101B8000534FA7FB043464092601FFF727F900EB44
:101B9000800000EB80006C68A400B0FBF4F9FFF754
:101BA0001DF900EB800000EB80006C68A400B0FB26
:101BB000F4F4A7FB043464094FF0640808FB1494A0
:101BC00024013234A7FB0434640904F0F0043444E3
:101BD000FFF704F900EB800000EB80006E68B600B0
:101BE000B0FBF6F6FFF7FAF800EB800000EB8000A0
:101BF0006B689B00B0FBF3F0A7FB0030400908FBCB
:101C000010684FEA081808F13208A7FB0837C7F335
:101C100043172B6827449F60BDE8F883FFF7EEF871
:101C200000EB800000EB80006C68A400B0FBF4F4D3
:101C3000274FA7FB043464092601FFF7DFF800EB08
:101C4000800000EB80006C68A400B0FBF4F9FFF7A3
:101C5000D5F800EB800000EB80006C68A400B0FBBE
:101C6000F4F4A7FB043464094FF0640808FB1494EF
:101C700024013234A7FB0434640904F0F004344432
:101C8000FFF7BCF800EB800000EB80006E68B60048
:101C9000B0FBF6F6FFF7B2F800EB800000EB800037
:101CA0006B689B00B0FBF3F0A7FB0030400908FB1A
:101CB00010684FEA081808F13208A7FB0837C7F385
:101CC00043172B6827449F60A6E700BF00380140F8
:101CD0001F85EB51704758B310B5044690F8393062
:101CE0000BB3242384F839302268D36823F40053DB
:101CF000D3602046FFF718FF2268136923F490434E
:101D000013612268536923F02A0353612268D36860
:101D100043F40053D3600020E063202384F839307B
:101D200084F83A3010BD80F83830FFF7D3FFD8E799
:101D30000120704782B00023019300932C4A13685E
:101D400043F0010313602A4B1B6803F00203009366
:101D5000019B01330193009B23B9019A4FF6FF7356
:101D60009A42F0D1224B1B6813F0020F06D00123D8
:101D70000093009B012B04D002B070470023009316
:101D8000F7E71B4B5A685A605A6822F460525A604F
:101D90005A685A605A6822F4E0625A605A6842F4FB
:101DA00080625A605A6822F0604222F47C125A60C3
:101DB0005A6842F0005242F480225A601A6842F097
:101DC00080721A600A4B1B6813F0007FFAD0084B30
:101DD0005A6822F003025A605A6842F002025A60BE
:101DE000034B5B6803F00C03082BF9D1C4E700BF79
:101DF0000010024008B5FFF79DFF08BD10B5164C56
:101E0000D4F8883043F47003C4F88830134B1A6850
:101E100042F001021A605968114A0A405A601A6871
:101E200022F0847222F480321A601A6822F480222E
:101E30001A605A6822F0684222F47F025A60196BD5
:101E4000084A0A401A634FF41F029A60FFF7D2FF54
:101E50004FF00063A36010BD00ED00E000100240F1
:101E60000C00FFE800FFFEFE30B597B01F4BDA69AB
:101E700042F48022DA61DA6902F480220092009A48
:101E80005A6942F001025A615B6903F00103019350
:101E9000019B174D06954FF4E133079300240894F6
:101EA00009940A9408230B930C940D9406A8FFF749
:101EB00012FF6B6943F080036B614FF48063029300
:101EC00001230493022303930323059302A90948E2
:101ED000FFF7D2FA084B1C60084A9A605C609022B7
:101EE0001A601C3B70225A6017B030BD00100240CF
:101EF00000480040000C01401C0002400448004023
:101F00002DE9F04F89B0804B9A6942F004029A6142
:101F10009A6902F004020192019A9A6942F0080259
:101F20009A619A6902F008020292029A9A6942F052
:101F300010029A619B6903F010030393039B002333
:101F400005930693022707974FF0200ACDF810A0BB
:101F500004A96E48FFF790FA4023049304A96B4844
:101F6000FFF78AFA8024049404A96848FFF784FAEA
:101F70004FF48066049604A96548FFF77DFA4FF494
:101F80000063049304A96248FFF776FA4FF4805582
:101F9000049504A95E48FFF76FFA049504A95D480B
:101FA000FFF76AFA049704A95A48FFF765FA4FF059
:101FB0000108CDF814804FF00409CDF8109004A961
:101FC0005248FFF759FA102304930DEB03015148CF
:101FD000FFF752FACDF810A004A94E48FFF74CFACB
:101FE0004FF40075049504A94948FFF745FACDF868
:101FF000109004A94548FFF73FFA03230593CDF855
:10200000108004A94248FFF737FACDF8108004A9E0
:102010004048FFF731FA4FF0080BCDF810B004A993
:102020003B48FFF729FA049704A93948FFF724FA37
:10203000102304930DEB03013548FFF71DFACDF88B
:1020400010A004A93248FFF717FACDF8109004A9A0
:102050002F48FFF711FACDF810B004A92D48FFF76B
:102060000BFACDF8109004A92A48FFF705FA059756
:102070004023049304A92648FFF7FEF9049404A919
:102080002348FFF7F9F94FF48079CDF8109004A9AF
:102090001F48FFF7F1F9049404A91E48FFF7ECF973
:1020A000CDF8108004A91948FFF7E6F9049704A9B0
:1020B0001648FFF7E1F9CDF8109004A91548FFF78D
:1020C000DBF9049504A91348FFF7D6F9049604A98F
:1020D0001048FFF7D1F94FF40053049304A90B48BB
:1020E000FFF7CAF94FF48043049304A90748FFF7A8
:1020F000C3F94FF40043049304A90448FFF7BCF963
:1021000009B0BDE8F08F00BF00100240000C014094
:1021100000100140000801402DE9F04F99B0874BB5
:102120009A6942F400629A619A6902F4006201922B
:10213000019A9A6942F400529A619B6903F4005330
:102140000293029B7E4EDFF80492C6F800900024B2
:1021500074604FF0400BC6F808B0DFF8F481D8F88F
:102160000030DFF8F0A1AAFB0323DB0AF36034613F
:102170007461B4613046FEF7BFFF102316931794C5
:1021800016A93046FFF7A4F860230F93109411941A
:1021900008231293139414944FF40073159322465A
:1021A0000FA93046FEF7FAFF04220FA93046FEF7CA
:1021B000F5FF08220FA93046FEF7F0FF4FF4006349
:1021C00008934FF4806309930A9420230B930C9493
:1021D0000D940E940DEB03013046FFF74DF8594D69
:1021E000594F2F606C60C5F808B0D8F80030AAFBD2
:1021F0000323DB0AEB602C616C61AC612846FEF7BF
:102200007BFF4FF0700BCDF858B08023179316A9C1
:102210002846FFF75DF804940523039303A9284695
:10222000FEF7FEFED8F80030DFF82CA1AAFB03234E
:102230005B0D03EB83039A007A6260230F93109483
:10224000119408231293139414944FF4007315936C
:1022500022460FA92846FEF7A1FF04220FA928460F
:10226000FEF79CFF08220FA92846FEF797FFCDF83E
:102270003CB00C220FA92846FEF790FF4FF40063F4
:1022800008934FF4806309930A9420230B930C94D2
:102290000D940E940DEB03012846FEF7EDFF7B6CC9
:1022A00023F400437B64D9F8443023F40043C9F895
:1022B00044302B681A6A22F4AA6222F005021A62DC
:1022C0001A6A40F2555002431A623268116A21F4C8
:1022D000AA6121F005011162116A01431162596C72
:1022E00041F400415964516C41F400415164DA6891
:1022F00042F01002DA60224621462E20FFF750F805
:102300002E20FFF781F82A6801231363E968D8F8C3
:102310000030AAFB033A4FEA9A5ACAEB0A1AA1EB19
:102320005A013964136843F001031360326813687B
:1023300043F00103136019B0BDE8F08F00100240B4
:10234000FC0100208C03002000340140002C0140DF
:1023500008000020D34D621083DE1B432DE9F043BB
:1023600087B0424DAB6943F40073AB61AB6903F4D2
:1023700000730093009B3E4C3E4B23604FF48073F0
:10238000A3600026E66066614FF44023E361666067
:102390004FF00509C4F810902046FFF72FFB364A8E
:1023A000536843F4802353604FF4C023059305A979
:1023B0002046FEF7B7FF012704970E2302930397E9
:1023C00002A92046FFF7A2F902964FF00208CDF8C5
:1023D0000C8002A92046FFF799F9CDF810804FF044
:1023E0000B08CDF808800323039302A92046FFF7CA
:1023F0008DF90C2302930423039302A92046FFF7CF
:1024000085F90723049310230293CDF80C9002A9B9
:102410002046FFF77BF92268936843F4000343F4F6
:102420008073936093683B4393606B693B436B613C
:102430006B693B400193019B104B1E60C3F80490F5
:102440000F4A9A600F4ADA6040F6A2221A601A68B0
:102450003A431A603A4639464046FEF7A1FF4046E5
:10246000FEF7D2FF07B0BDE8F08300BF00100240C6
:10247000C402002000240140000001400800024086
:102480004C24014038030020F0B585B0284B9A69F0
:1024900042F480629A619B6903F480630093009B1D
:1024A000244C254B23604FF48073A3600023E3602A
:1024B00063614FF46022E261636005262661204675
:1024C000FFF79CFA012303930F220192029301A9C3
:1024D0002046FFF71BF90D2301930225029501A960
:1024E0002046FFF713F903950A2301930327029768
:1024F00001A92046FFF70AF90195042302930DEB89
:1025000003012046FFF702F9072303930197029680
:1025100001A92046FFF7FAF823689A6842F480720E
:102520009A609A6842F001029A6005B0F0BD00BF5F
:102530000010024078010020002801400D4B1B686C
:102540001333262B14D810B500240B4B1C700B4BE7
:102550001C7005E00A4B1C706420FFF7C3F80134BF
:10256000072CF7DD002220210648FFF779F8FEE767
:10257000704700BF780400200E01002014010020E5
:102580000D0100200008014008B5FEF721FC084BB2
:10259000A3FB00308009FEF743FF0420FEF756FF3F
:1025A000002211464FF0FF30FEF7FAFE08BD00BFD3
:1025B000D34D621000000000D0B52DED028B82B02B
:1025C000FFF770F8C04CA36943F00103A361A3694E
:1025D00003F001030193019B0320FEF7CFFE0022CD
:1025E00011466FF00B00FEF7DBFE002211466FF084
:1025F0000A00FEF7D5FE002211466FF00900FEF733
:10260000CFFE002211466FF00400FEF7C9FE002243
:1026100011466FF00300FEF7C3FE002211466FF073
:102620000100FEF7BDFE002211464FF0FF30FEF71D
:10263000B7FEFFF7A9FF636923F001036361FFF7AA
:102640005FFCFFF769FDFFF789FEFFF71DFFFFF74E
:102650000BFC012220219D48FFF702F89C48FFF760
:102660002FF99C48FFF72CF99B4B032283F860203D
:10267000012283F8612099480360994AC260994A0F
:102680004260994A8260994C2360994BE360994B70
:102690006360994BA36000F095FD204600F092FD29
:1026A000082405E0954B1C706420FFF71BF8013CE3
:1026B000002CF7DA914B00221A7001220421904875
:1026C000FEF7CEFF8F4B4FF07E521A608E4B1B8A67
:1026D0009BB207EE903AF8EE678A8C4B01221A7093
:1026E0007CE018EE900AFDF70FFF6FA3D3E90023FB
:1026F000FDF762FF06460F46834C208A80B207EE44
:10270000900AF8EE677A17EE900AFDF7FDFE68A3CF
:10271000D3E90023FDF750FF02460B463046394609
:10272000FDF794FDFEF782F908EE900A9FED788A96
:1027300038EEC88ADFED777A28EE278ADFED767AE1
:1027400038EE278A6421022000F0A4FA64210320D5
:1027500000F0A0FAA18909B2042000F09BFA6F4BA7
:10276000D3ED007A9FED6E7A67EE877AFDEEE77A19
:1027700017EE903A19B2052000F08CFAFDEEE87AD7
:1027800017EE903A19B2062000F084FABDEEC88A1E
:1027900018EE103A19B2072000F07CFA00F080FA27
:1027A0006DE09FED607AF4EEC77AF1EE10FA0DD588
:1027B0009FED5D7AF4EEC77AF1EE10FA06DD4F4B2D
:1027C00005221A70594B06221A7004E000234B4A66
:1027D0001370564A1370564B00221A600520FEF7FC
:1027E00081FF544C2068FDF77DFE33A3D3E900231D
:1027F000FDF7E2FE06460F464F4B1868FDF772FEE6
:102800002FA3D3E90023FDF7D7FE02460B4630463F
:102810003946FDF71BFDFEF7E1F82060474C2068C4
:10282000FDF760FE24A3D3E90023FDF7C5FE0646AD
:102830000F46434B1868FDF755FE21A3D3E900234B
:10284000FDF7BAFE02460B4630463946FDF7FEFC60
:10285000FEF7C4F820603B4B3C221A603A4B6FF005
:102860003B021A60324B1A68384BA3FB0213DB0899
:1028700003EB830303EB83039A423FF432AF274B0E
:10288000D3ED007A9FED287AF4EEC77AF1EE10FAD4
:1028900087D52A4B1B681333262B82D8FFF74EFEB1
:1028A00099E700BFAFF30080AE47E17A14AEEF3F87
:1028B0007B14AE47E17A843FCDCCCCCCCCCCEC3F82
:1028C0009A9999999999B93F0010024000080140DE
:1028D000C402002078010020280000208404002089
:1028E000EC030020540400201004002064040020A5
:1028F0002C04002024040020D80300200D01002017
:10290000000C0140D00300203803002014010020F7
:1029100000E0CE44083748BE33330F420C0000209D
:102920000000C8420000C44152B8BC410E01002062
:10293000CC030020600400208004002078040020E4
:102940005C040020200100201C0100201F85EB51A9
:1029500008B5054A136923F010031361012204210D
:102960000248FEF77DFE08BD00340140000C014026
:1029700010B5A84B02225A6000220421A648FEF797
:102980006FFE01224FF40071A448FEF769FEA44BCC
:102990001B68B3F57A7F43DBA24B1A68A24BA3FBFB
:1029A00002139B094FF47A7101FB1323CBB99F49A2
:1029B000D1ED007A9FED9E7A27EE877A9D4B9B8919
:1029C0009BB207EE903AF8EE677ADFED9B6A67EE0E
:1029D000A67ADFED9A6A67EEA67A77EE277AC1EDDE
:1029E000007A01328F4B1A60954B1C78002C4CD02A
:1029F000944BA3FB02131B0B934909780131B3FBE2
:102A0000F1F001FB1033002B3FD1B2FBF4F304FBD8
:102A10001322002A3ED110218C48FEF727FE39E010
:102A200001337F4A1360834A908889490B680344C5
:102A300003EBD3735B100B60D08886490B680344AB
:102A400003EBD3735B100B60108883490B6803445E
:102A500003EBD3735B100B60508880490B68034411
:102A600003EBD3735B100B6050897D490B68034403
:102A700003EBD3735B100B6011897A4A13680B4424
:102A800003EBD3735B10136010BD002210216F485D
:102A9000FEF7E6FD744B1B78002BF5D1724B01223B
:102AA0001A705D4B9A6812F0200F0CBF01200020B5
:102AB0009A6812F0800F0CBF012100219B6813F06F
:102AC000400F0CBF01220022684B187059709A7099
:102AD000674A12685A60674B186800F073F9664BD2
:102AE00019685A689B6840F25B40814207DCA0F697
:102AF000B600814213DB01F2654189B201E04FF477
:102B00000C615E48416340F25B418A4209DCA1F6F8
:102B1000B6018A4215DB02F2654292B203E00A2155
:102B2000EFE74FF40C6255498A6340F25B429342EF
:102B300009DCA2F6B602934237DB03F265439BB28F
:102B400003E00A22EFE74FF40C634C4AD363334BA4
:102B50009A6812F4805F0CBF012000209A6812F47A
:102B6000806F0CBF012100219B6813F4006F0CBF24
:102B700001220022424B187059709A70414A126823
:102B80005A60414B186800F01DF9404B19685A68AB
:102B90009B6840F25B40814209DCA0F6B6008142AE
:102BA00015DB01F2654189B203E00A23CDE74FF45A
:102BB0000C613748416340F25B418A4209DCA1F66F
:102BC000B6018A4215DB02F2654292B203E00A21A5
:102BD000EFE74FF40C622E498A6340F25B42934266
:102BE00009DCA2F6B602934212DB03F265439BB204
:102BF00003E00A22EFE74FF40C63254AD363002277
:102C0000194B1A704FF400710448FEF729FD3BE799
:102C10000A23F2E700000240000C014000100140CE
:102C20001801002010010020D34D62100C0000207C
:102C3000A4707D3F38030020B29CD13C0AD7233CCE
:102C40000D0100205917B7D10E01002000080140E6
:102C5000180000201C00002020000020240000207C
:102C600010000020140000200C010020540400205B
:102C70001C010020843A00081004002000340140A8
:102C80002404002020010020883A0008D8030020F6
:102C9000002C0140014B23F810107047F80400206D
:102CA000F0B587B01A4F64220021384600F0B9FA17
:102CB00018490A88B1F802C0888800B2CC8824B2CA
:102CC0000D892DB24E8936B28B891BB2C98909B2E2
:102CD0000591049303960295019400900FFA8CF3EA
:102CE00012B20D49384600F0A5FA0C4B5B686BB97F
:102CF0000A4C236823F0010323603846FDF748FAA5
:102D00006060E760236843F00103236007B0F0BD13
:102D100094040020F80400208C3A00081C000240B3
:102D20007047FEE7FEE7FEE7FEE770477047704733
:102D300008B5FEF7C9FCFEF79AFB08BD38B5049D3F
:102D4000884203DC00242C60204638BD401AB0FBCA
:102D5000F2F49C4209D2E4B202FB14010023C8073A
:102D60004908FDF7B3FE2860EEE7DCB2013CE4B2AF
:102D70004FF000432B60E7E7D0B4431C32F9133027
:102D800032F910401A1BD717A1FB022301FB0733AE
:102D9000D00F40EA4300A4B214FA80F000B2D0BCD5
:102DA0007047CB0FB3EBD07F07D090FBF1F301FB63
:102DB00013031BB14FF0FF3300E0002390FBF1F051
:102DC000184470472DE9F04F87B00568C46846681D
:102DD000D0F8089031788B00DBB270784200D2B224
:102DE0001344DBB2B27813445FFA83FBD6F804A035
:102DF000BAF1000F1BDB277F637F41404A407A40D6
:102E00005A40A37F9A422DD094F919302376A74BCC
:102E10005B4493F90A22D3B2A17E5B1A5BB2012B09
:102E200008D013F1050F05D0FF23637604E0CAF143
:102E3000000AE0E701236376A276B4F91430E38157
:102E40009AB2E18A521A2282E3820127B5F95E30F2
:102E5000BB4219DB94F9192094F918309A420BD02F
:102E6000002212E0B4F91230B5F95E70BB4200DA0C
:102E70001F4601373FB2E9E72B6802FB03F2B4F9C2
:102E80000E3092FBF3F200E000226868C0F16403A8
:102E9000616802FB00F201FB0323854A82FB0312F7
:102EA0004FEAE378C8EB621813F1630F02DAC8F156
:102EB000000200E04246EB68934278DC0123E377AE
:102EC000B4F91030002B78DBB5F95A10994278DC50
:102ED000012384F8203094F91B1095F86030002B02
:102EE00077D14FF0FF33E3768B4203D011B92160E5
:102EF000C9F810105BBB94F9191001296BD0337815
:102F00009B00DBB270784000C0B20344DBB2B07803
:102F10000344664850FA83F393F80A02013040B242
:102F2000C7EB071C4FEA8C03B4F90EC093FBFCF30C
:102F3000C0EB00104FEA800C01FB03C1C9F8101070
:102F400095F8613013B12B69934249DB216095F804
:102F50006030022B00F08880032B00F0AF80012B43
:102F600061D094F91930002BC0F2C980002BD4BF76
:102F7000002201227368002BC0F2C480002BD4BF52
:102F80000020012095F8601029B16969514502DAE5
:102F9000824200F0BA80454A5A4492F90A02052852
:102FA00000F3C980002880F2C7800020C4E0AB682D
:102FB000934285DB0023E37782E79BB25B421BB23F
:102FC00082E7B5F95C10994285DB002384F8203054
:102FD00081E7002387E7354B5B4493F90A029FE7BB
:102FE000A969EA6905AB00930A23521A5046FFF714
:102FF000A5FE05F144020599FFF7BEFE94F91930CC
:103000009BB210FB03F0D9F8103003FA80F34FF4B1
:10301000B47102931846FFF7C4FE264B029A03FBD5
:103020000020206093E7206805AB009306233C2234
:103030000021FFF783FE0390059B1C4A029319466B
:10304000FFF79AFE2081194B03F10E0202990398B3
:10305000FFF792FE6081154B03F11C020299039861
:10306000FFF78AFEA0817CE7206805AB009324234C
:103070000A220021FFF762FE0390059B0E4A02938D
:103080001946FFF779FE20810B4B03F14A020299A2
:103090000398FFF771FE6081074B03F194020299D8
:1030A0000398FFF769FEA0815BE700BFB83A00080C
:1030B0001F85EB5198FEFFFFE23A0008206805AB40
:1030C000009324230A220021FFF738FE0390059B7A
:1030D000394A02931946FFF74FFE2081364B03F120
:1030E0004A0202990398FFF747FE6081324B03F1D1
:1030F000940202990398FFF73FFEA08131E74FF059
:10310000FF3237E74FF0FF303CE7E27F002A3FF421
:1031100042AF94F82020002A7FF43DAFB4F90810A4
:1031200001FB03F1B4F90A2002FB03F2B4F90C002D
:1031300000FB03F31AE0052000EB40001F4D00F1F7
:10314000F00205EB4202B2F9061001FB03F100F1B7
:10315000F10205EB4202B2F9062002FB03F2F23063
:1031600005EB4000B0F9060000FB03F3144880FBB8
:1031700001C5C917C1EBA511C9F8001080FB0251A8
:10318000D217C2EBA112C9F80420327822777278E4
:103190006277B278A2776782A782C4F8048080FB46
:1031A0000312DB17C3EBA213C9F80830C9F80C806F
:1031B00007B0BDE8F08F00BFC03B0008B83A000878
:1031C000D34D62100268C368FF21D976B2F95E1050
:1031D0005982D982B2F95E20DA817047002103E07A
:1031E0000A4B5B584350043109480A4B42189A4233
:1031F000F6D3094A02E0002342F8043B074B9A4207
:10320000F9D3FEF7FBFDFFF7D7F97047283D00081B
:1032100000000020F0000020F00000201805002031
:10322000FEE702440346934200D1704703F8011BB6
:10323000F9E700000EB400B59CB01DAB02900690FB
:103240006FF00041094807910491094953F8042B94
:1032500005910068019302A900F068F8029B002222
:103260001A701CB05DF804EB03B070478C000020AE
:103270000802FFFF2DE9F0478E689E4282460C4609
:103280009146984638D8B1F80CC01CF4906F31D0F4
:1032900062692568096902EB42026F1A02EBD27279
:1032A000013355103B449D4238BF1D461CF4806FCE
:1032B00030D0294600F032FB064650B90C23CAF83C
:1032C0000030A38943F04003A3814FF0FF30BDE8F5
:1032D000F0873A46216900F0ABFAA38923F49063A2
:1032E00043F08003A381266165613E44ED1B2660A7
:1032F000A5604646464500D94646324649462068BE
:1033000000F0A4FAA3689B1BA36023681E442660F8
:103310000020DCE72A4600F05BFB06460028E2D1ED
:103320002169504600F0ACFAC8E700002DE9F04FE3
:103330001E468B891B069DB007460D4614460ED5CA
:103340000B6963B9402100F0E9FA2860286120B9CF
:103350000C233B604FF0FF30C9E040236B6100233A
:10336000099320238DF82930DFF89C9103963023B0
:103370008DF82A304FF0010A23461E4613F8012B20
:103380000AB1252AF9D1B6EB040B0BD05B462246D5
:1033900029463846FFF76EFF013000F0A380099BF5
:1033A0005B4409933378002B00F09C8000234FF09E
:1033B000FF32CDE905230136049307938DF853308E
:1033C0001A933446052214F8011B4F48FCF7E8FE17
:1033D000049BC0B9D90644BF20228DF853201A0798
:1033E00044BF2B228DF8532032782A2A13D0079A13
:1033F000344600200A26214611F8013B303B092BB8
:103400004BD970B914E0A0EB09000AFA00F0184398
:1034100004902646D5E7039A111D12680391002AED
:1034200001DB079204E0524243F002030792049347
:1034300023782E2B0CD163782A2B33D1039B1A1DB2
:103440001B680392002BB8BF4FF0FF330234059383
:103450002E4E217803223046FCF7A2FE38B14023DD
:10346000801B03FA00F0049B03430134049314F817
:10347000011B27488DF828100622FCF791FE002832
:1034800038D0244B13BB039B073323F007030833C7
:103490000393099B434409936EE706FB0232012024
:1034A0000C46A8E700230134059319460A26204656
:1034B00010F8012B303A092A03D9002BC8D0059106
:1034C000C6E706FB012101230446F0E703AB0093A6
:1034D0002A46114B04A93846AFF30080B0F1FF3FF4
:1034E0008046D6D1AB895B063FF534AF09981DB055
:1034F000BDE8F08F03AB00932A46074B04A938467A
:1035000000F082F8EAE700BFCA3C0008D03C00089F
:10351000D43C000800000000753200082DE9F04797
:1035200091461F468A680B69DDF820809342B8BF38
:103530001346C9F8003091F8432006460C4612B1F4
:103540000133C9F800302368990642BFD9F800302A
:103550000233C9F80030256815F0060507D104F1DB
:10356000190AE368D9F800209B1AAB4228DC94F8CA
:1035700043302268003318BF012392062DD404F192
:10358000430239463046C047013020D02368E56801
:10359000D9F8002003F00603042B08BFAD1AA36876
:1035A00022690CBF25EAE57500259342C4BF9B1A2A
:1035B000ED184FF000091A344D451AD1002008E0EB
:1035C0000123524639463046C047013003D14FF0FF
:1035D000FF30BDE8F0870135C3E7E1185A1C302001
:1035E00081F84300224494F8451082F843100233D6
:1035F000C5E70123224639463046C0470130E6D0B0
:1036000009F10109D8E700002DE9F04306460C4610
:1036100001F14300097E85B06E29984617460C9B40
:1036200000F0BA8024D8632939D00AD8002900F0E4
:10363000C380582900F0918004F1420584F84210BB
:1036400035E0642901D06929F6D125681A6815F09A
:10365000800F02F104012CD012681960002A03DAED
:103660002D23524284F84330DFF8BCC10A233FE0E7
:10367000732900F0A58008D86F2921D07029DBD1EB
:10368000226842F02002226003E0752918D07829D0
:10369000D2D1782284F84520DFF890C161E01A6821
:1036A000111D1960136884F8423004F142050123AA
:1036B00093E01268196015F0400F18BF12B2CDE701
:1036C000D4F800C01A681CF0800F02F104051D60D8
:1036D00001D0126803E01CF0400FFAD01288DFF826
:1036E00048C16F290CBF08230A23002184F8431026
:1036F0006568A560002DA2BF216821F0040121604A
:103700000AB9002D46D00546B2FBF3F103FB112E9A
:1037100093421CF80EE005F801ED39D9082B0BD1C6
:103720002368DA0708D5236962689A42DEBF30232E
:1037300005F8013C05F1FF35401B2061CDF8008004
:103740003B4603AA21463046FFF7E8FE013049D147
:103750004FF0FF3005B0BDE8F083DFF8CCC084F84F
:1037600045101D68216855F8042B1D600D060BD50A
:10377000CD0744BF41F0200121601AB9236823F02E
:10378000200323601023B0E74B0648BF92B2EFE757
:103790000A46B9E70546C1E71A68D4F800C061696E
:1037A000151D1D601CF0800F136801D0196003E027
:1037B0001CF0400FFAD01980002323610546BDE7B5
:1037C0001A68111D19601568626800212846FCF707
:1037D000E7FC08B1401B606063682361002384F844
:1037E0004330ABE723692A4639463046C0470130AB
:1037F000AED023689B0713D4E068039B9842B8BF00
:103800001846A7E701234A4639463046C0470130EB
:103810009ED00135E368039A9B1AAB42F2DCEBE7DA
:10382000002504F11909F5E7DB3C0008EC3C000831
:103830000A44914200F1FF3300D1704710B511F8EE
:10384000014B03F8014F9142F9D110BD884210B5E8
:1038500001EB020302D983421C4607D8421E99425B
:1038600008D011F8014B02F8014FF8E783189A1AB3
:103870009A4200D110BD14F8011D03F8011DF7E7AD
:1038800038B50546002945D051F8043C0C1F002BE3
:10389000B8BFE41800F0D2F81F4A1368104633B9D5
:1038A000636014602846BDE8384000F0CDB8A342FC
:1038B0000CD921686218934204BF1A685B68636080
:1038C00004BF521822600460ECE713465A680AB13C
:1038D000A242FAD919685818A0420BD120680144B5
:1038E000581882421960DDD1106852685A6001444C
:1038F0001960D7E702D90C232B60D3E72068211881
:103900008A4204BF11685268626004BF09182160CE
:103910005C60C7E738BD00BF24010020F8B5CD1CAE
:1039200025F0030508350C2D38BF0C25002D064663
:1039300001DBA94203D90C2333600020F8BD00F05D
:103940007DF821490A6814469CB9204F3B6823B989
:103950002146304600F062F838602946304600F0D3
:103960005DF8431C23D10C233360304600F06CF823
:10397000E3E723685B1B17D40B2B03D923601C449C
:10398000256004E06368A2420CBF0B6053603046C0
:1039900000F05AF804F10B00231D20F00700C21AB2
:1039A000CCD01B1AA350C9E722466468CCE7C41CDC
:1039B00024F00304A042E3D0211A304600F02EF890
:1039C0000130DDD1CFE700BF240100202801002015
:1039D000F8B5074614460E4621B91146BDE8F84031
:1039E000FFF79CBF22B9FFF74BFF25462846F8BDDD
:1039F00000F030F8A0420FD221463846FFF78EFF84
:103A000005460028F2D031462246FFF711FF314625
:103A10003846FFF735FFE9E73546E7E738B5064CA6
:103A2000002305460846236000F01EF8431C02D11F
:103A3000236803B12B6038BD08050020014800F061
:103A400011B800BF10050020014800F00CB800BFFD
:103A50001005002051F8043C181F002BBCBF0B5868
:103A6000C018704770477047044A05491368002B17
:103A700008BF0B4618441060184670472C01002000
:103A8000180500208404002064040020313A2569D0
:103A900020323A256920333A256920343A256920B5
:103AA000353A256920363A256920373A2569203884
:103AB0003A25690D0A000000E803E803E80318FC52
:103AC00018FC18FCE80318FC18FCE803E803E803FA
:103AD00018FC18FCE80318FC18FC18FCE803E803C1
:103AE000E803F4018302FE026203AC03D903E80396
:103AF000D903AC036203FE028302F4015601AE0057
:103B0000000052FFAAFE0CFE7DFD02FD9EFC54FC4F
:103B100027FC18FC27FC54FC9EFC02FD7DFD0CFEDE
:103B2000AAFE52FF0000AE005601F40118FC27FC6B
:103B300054FC9EFC02FD7DFD0CFEAAFE52FF00001F
:103B4000AE005601F4018302FE026203AC03D90306
:103B5000E803D903AC036203FE028302F4015601B9
:103B6000AE00000052FFAAFE0CFE7DFD02FD9EFC91
:103B700054FC27FC18FCF4015601AE00000052FF73
:103B8000AAFE0CFE7DFD02FD9EFC54FC27FC18FCE9
:103B900027FC54FC9EFC02FD7DFD0CFEAAFE52FF9C
:103BA0000000AE005601F4018302FE026203AC0382
:103BB000D903E803D903AC036203FE028302F401D4
:103BC0002D03B103E803E403C2039E0390039E03A5
:103BD000C203E403E803B1032D0357023F010000D1
:103BE000C1FEA9FDD3FC4FFC18FC1CFC3EFC62FC92
:103BF00070FC62FC3EFC1CFC18FC4FFCD3FCA9FDD5
:103C0000C1FE00003F0157022D0370FC62FC3EFC28
:103C10001CFC18FC4FFCD3FCA9FDC1FE00003F01B9
:103C200057022D03B103E803E403C2039E0390038C
:103C30009E03C203E403E803B1032D0357023F01CF
:103C40000000C1FEA9FDD3FC4FFC18FC1CFC3EFC8F
:103C500062FC70FC2D0357023F010000C1FEA9FD6C
:103C6000D3FC4FFC18FC1CFC3EFC62FC70FC62FCAC
:103C70003EFC1CFC18FC4FFCD3FCA9FDC1FE00005F
:103C80003F0157022D03B103E803E403C2039E037F
:103C900090039E03C203E403E803B1032D03E8038A
:103CA00018FC0000E803000018FC0000E80318FC02
:103CB00018FCE803000018FC0000E803000018FCF2
:103CC000E8030005030401000200232D302B20002F
:103CD000686C4C00656667454647003031323334C6
:103CE0003536373839414243444546003031323366
:103CF0003435363738396162636465660000000028
:103D0000F8B500BFF8BC08BC9E467047F8B500BFC8
:083D1000F8BC08BC9E46704798
:083D1800E4CDFF7F0100000073
:043D20007501000821
:043D24005101000841
:103D2800000000000102030400A24A040000E04170
:103D3800D0070000D0070000D0070000D00700001F
:103D4800D0070000D0070000AB2900000A000000DF
:103D58000F0000001E000000900100004600000057
:103D68000000000064000000C80000002C010000F2
:103D780090010000F401000058020000BC0200009D
:103D88002003000084030000E80300000000000096
:103D980000000000000002000300050009001000F8
:103DA800190032001400DC05030100009000002017
:103DB80000000000000000000000000000000000FB
:103DC80000000000000000000000000000000000EB
:103DD80000000000000000000000000000000000DB
:103DE80000000000000000000000000000000000CB
:103DF80000000000000000000000000000000000BB
:103E080000000000000000000000000000000000AA
:04000005080031DDE1
:00000001FF
